:020000020000FC
:1001180000E005BBBBDFC2DFD0E0C0E60991D02E0E
:100128000881C02E10E0F1E0E6E6C2DFF1E0E8E782
:10013800C3DF0C2D005D502ECBDF0D2D005D502E42
:10014800C7DFA8DF02D0789473CF73E020E030E0F7
:1001580040E050E000EFA02E089553C0E1C02020F9
:1001680050454E43455420444F4E47212020FF0020
:0C017800202020484953434F524520FFEF
:10020A0011E009E0021711F433952FEF23950FE55A
:10021A000DBF02E00EBF1AD077D03AD02DDF789406
:10022A0030D0BB2051F400C001E0081719F08695C0
:10023A0085BBF6CF01E0B02E00C000E8081719F020
:10024A00880F85BBEDCF00E0B02EEECF1EDF25DF95
:10025A00F3E0EAE42CDF032F005D502E38DF022F93
:10026A00005D502E34DFF3E0E6E529DFF3E0ECE54C
:10027A0022DF0FDF0FEF602E702E03D002D001D0E5
:10028A000895862C9A94F1F7972C8A94D9F70895B1
:10029A00FCDE03DFF3E0EEE60ADF032F005D502EFB
:1002AA0016DF022F005D502E12DFF3E0E4E707DFCE
:1002BA00052F005D502E0BDF042F005D502E07DF47
:1002CA00F3E0ECE7F8DE072F005D502E00DFF3E0E5
:1002DA00E4E8F5DE062F005D502EF9DEDADE089539
:1002EA00D4DEDBDEF3E0ECE8E2DEF3E0EEE9E3DEC7
:1002FA00072F005D502EEBDECCDE0FEF602E702E46
:10030A00C0DFBFDFBEDF0895BDDE04E6602E0A2D22
:10031A00702E63E080E885BB00E0B02E0895841556
:10032A0031F0ADDE7723E1F17A95DADF70CF04E1BF
:10033A00A01A460F0AE0401712F05395401B60CFEF
:10034A00202020204C4556454C20FF00202020200C
:10035A00FF00202020202052454144593F202020E0
:10036A002020FF00204C564C20FF2053434F52457B
:10037A0020FF204C49464520FF002054494D452086
:10038A00FF0020202020594F55204C4F5345202054
:10039A002020FF0020202020204C49464520FF0035
:0203AA002AC067
:1004000012E048DE4FDEF4E0EAE456DEC51682F084
:1004100011F4D4166AF0F4E0ECE552DE052F005D2D
:10042000502E5ADE042F005D502E56DE37DE0BC0F4
:10043000D42EC52ED0E0C0E649935883F4E0E8E618
:100440003FDE2CDE00C07894FFCF202020204741E3
:100450004D454F56455220202020FF0020202020CF
:1004600053434F524520FF0020204E455720484916
:0A04700053434F5245212020FF00A6
:040000000EC070C0FE
:10001C006EC00FE50DBF02E00EBF08E0402E0FEFE3
:10002C00302E05D013D019D01DD070C0FFCF0FEFDC
:10003C000ABB07BBD99808E308BB35D00CE008BB5A
:10004C0032D006E008BB2FD027D008950FEF01BBAC
:10005C000AE005BF00EC0BBF08950FEF04BB00E0F6
:10006C0005BB089500E003BF01E009BF01E008BF34
:10007C000FEF01BF089505E003BF089500E003BF33
:10008C00089500E002BF089508E008BB0CD0089565
:10009C000CE008BB08D0089501E008BB04D002E0D6
:1000AC0008BB01D00895D89AD898089500E808BBE9
:1000BC00FADF04C000EC08BBF6DF00C0C8953014B2
:1000CC0021F03196502C02D0F9CF0895D99A052DF4
:1000DC0008BBE9DFD9980895202E0F910F91022DBE
:1000EC0000E00117C1F101E00117B1F10FC0C6DF4B
:1000FC00662359F061500DEC08BBD5DF062F005D6F
:0C010C00502EE4DFB8DF789408950AC19B
:00000001FF
