:020000020000FC
:1000C000C3DF10E0F0E0E8EEC9DFF0E0EAEFCADFFE
:1000D000052F005D502ED2DF042F005D502ECEDFA5
:1000E00078949ECF8DC0DCC0202050454E434554AF
:1000F00020444F4E47212020FF0020202048495314
:06010000434F524520FFB1
:1002000012E009E0021711F433952FEF239503D084
:1002100021D0789405CF18DFF2E0E0EA1FDF032F4A
:10022000005D502E2BDF022F005D502E27DFF2E005
:10023000ECEA1CDFF2E0E2EB15DFAFEF05D0AFEF49
:1002400003D0AFEF01D008959A95F1F79EEFAA95EC
:10025000D9F70895F9DEF2E0E4EC00DF032F005D4A
:10026000502E0CDF022F005D502E08DFF2E0EAEC8A
:10027000FDDE052F005D502E01DF042F005D502EA6
:10028000FDDEF2E0E2EDEEDE072F005D502EF6DE41
:10029000F2E0EAEDEBDE05E0005D502EEFDE0895C2
:1002A000202020204C4556454C20FF0020202020B7
:1002B000FF00202020202052454144593F2020208B
:1002C0002020FF00204C564C20FF2053434F524526
:1002D00020FF204C49464520FF002054494D452031
:0202E000FF001D
:0400000004C042C036
:100008004BC10FE50DBF02E00EBF08E0402E0FEF19
:10001800302E03D00ED050C0FFCFD99808E308BBCC
:1000280016D00CE008BB13D006E008BB10D008D0EF
:1000380008950FEF01BB0AE005BF00EC0BBF089560
:1000480001E008BB04D002E008BB01D00895D89AAB
:10005800D898089500E808BBFADF04C000EC08BB94
:10006800F6DF00C0C895301421F03196502C02D02C
:10007800F9CF0895D99A052D08BBE9DFD9980895D5
:10008800202E0F91022D00E0011741F101E0011728
:0A00980031F102E0011781F000C011
:00000001FF
