:020000020000FC
:1000A000CBDFF0E0E4ECD2DFF0E0E6EDD3DF052FCC
:1000B000005D502EDBDF042F005D502ED7DFAFCF69
:1000C0009FC09EC0202050454E43455420444F4E73
:1000D00047212020FF00202020484953434F52450C
:0200E00020FFFF
:0400000004C03AC03E
:10000800FBC00FE50DBF02E00EBF08E0402E0FEF6A
:10001800302E02D041C0FFCFD99808E308BB0FD0DB
:100028000CE008BB0CD006E008BB09D001D008954D
:1000380001E008BB04D002E008BB01D00895D89ABB
:10004800D898089500E808BBFADF04C000EC08BBA4
:10005800F6DF00C0C895301421F03196502C02D03C
:10006800F9CF0895D99A052D08BBE9DFD9980895E5
:10007800202E0F91022D00E00117F1F001E0011789
:0A008800E1F002E0011741F000C0B2
:00000001FF
