:020000020000FC
:1000EA0000E005BBB8DFBFDFD0E0C0E60991D02E43
:1000FA000881C02E10E0F1E0E8E3BFDFF1E0EAE4B6
:10010A00C0DF0C2D005D502EC8DF0D2D005D502E76
:10011A00C4DFA5DF02D0789482CF73E020E030E01C
:10012A0040E050E000EFA02E08956AC0E2C020200F
:10013A0050454E43455420444F4E47212020FF004E
:0C014A00202020484953434F524520FF1D
:10020A0011E009E0021711F433952FEF23950FE55A
:10021A000DBF02E00EBF19D03AD061D0789430D029
:10022A00BB2051F400C001E0081719F0869585BB80
:10023A00F6CF01E0B02E00C000E8081719F0880FC9
:10024A0085BBEDCF00E0B02EEECF05DF0CDFF3E08B
:10025A00EAE113DF032F005D502E1FDF022F005D3E
:10026A00502E1BDFF3E0E6E210DFF3E0ECE209DFF9
:10027A00F6DE0FEF602E702E03D002D001D0089563
:10028A00862C9A94F1F7972C8A94D9F70895E3DE8D
:10029A00EADEF3E0EEE3F1DE032F005D502EFDDE31
:1002AA00022F005D502EF9DEF3E0E4E4EEDE052FC6
:1002BA00005D502EF2DE042F005D502EEEDEF3E0DC
:1002CA00ECE4DFDE072F005D502EE7DEF3E0E4E525
:1002DA00DCDE03E0005D502EE0DEC1DE089504E6B8
:1002EA00602E0A2D702E63E080E885BB00E0B02EF8
:1002FA000895841521F0772361F17A9588CF04E176
:10030A00A01A460F0AE0401712F05395401B78CF07
:10031A00202020204C4556454C20FF00202020203C
:10032A00FF00202020202052454144593F20202010
:10033A002020FF00204C564C20FF2053434F5245AB
:10034A0020FF204C49464520FF002054494D4520B6
:04035A00FF0051C08F
:1004000012E02EDE35DEF4E0EAE43CDEC51682F0D2
:1004100011F4D4166AF0F4E0ECE538DE052F005D47
:10042000502E40DE042F005D502E3CDE1DDE0BC042
:10043000D42EC52ED0E0C0E649935883F4E0E8E618
:1004400025DE12DE00C07894FFCF20202020474117
:100450004D454F56455220202020FF0020202020CF
:1004600053434F524520FF0020204E455720484916
:0A04700053434F5245212020FF00A6
:0400000007C056C01F
:10000E0085C10FE50DBF02E00EBF08E0402E0FEFD9
:10001E00302E04D012D018D061C0FFCF0FEF0ABB24
:10002E0007BBD99808E308BB23D00CE008BB20D04F
:10003E0006E008BB1DD015D008950FEF01BB0AE0F6
:10004E0005BF00EC0BBF08950FEF04BB00E005BB2E
:10005E00089508E008BB0CD008950CE008BB08D04A
:10006E00089501E008BB04D002E008BB01D008955A
:10007E00D89AD898089500E808BBFADF04C000ECBF
:10008E0008BBF6DF00C0C895301421F03196502C15
:10009E0002D0F9CF0895D99A052D08BBE9DFD9987A
:1000AE000895202E0F910F91022D00E00117D9F126
:0E00BE0001E00117C9F102E0011781F000C056
:00000001FF
