:020000020000FC
:1000EA0000E005BBB8DFBFDF10E0F1E0ECE2C5DFFE
:1000FA00F1E0EEE3C6DF052F005D502ECEDF042FC0
:10010A00005D502ECADFABDF02D0789488CF73E04F
:10011A0020E030E040E050E000EFA02E089570C0EB
:10012A00E4C0202050454E43455420444F4E4721B9
:10013A002020FF00202020484953434F524520FFEA
:10020A0011E009E0021711F433952FEF239519D065
:10021A003AD061D0789430D0BB2051F400C001E0CC
:10022A00081719F0869585BBF6CF01E0B02E00C0FD
:10023A0000E8081719F0880F85BBEDCF00E0B02E53
:10024A00EECF09DF10DFF3E0E2E117DF032F005DF5
:10025A00502E23DF022F005D502E1FDFF3E0EEE168
:10026A0014DFF3E0E4E20DDFFADE0FEF602E702E0A
:10027A0003D002D001D00895862C9A94F1F7972CD6
:10028A008A94D9F70895E7DEEEDEF3E0E6E3F5DED9
:10029A00032F005D502E01DF022F005D502EFDDE80
:1002AA00F3E0ECE3F2DE052F005D502EF6DE042FBC
:1002BA00005D502EF2DEF3E0E4E4E3DE072F005D9A
:1002CA00502EEBDEF3E0ECE4E0DE05E0005D502EBC
:1002DA00E4DEC5DE089504E6602E0A2D702E65E080
:1002EA0080E885BB00E0B02E0895841521F07723BD
:1002FA0061F17A958CCF04E1A01A460F0AE0401703
:10030A0012F05395401B7CCF202020204C455645A7
:10031A004C20FF0020202020FF00202020202052F7
:10032A00454144593F2020202020FF00204C564CB4
:10033A0020FF2053434F524520FF204C4946452079
:0C034A00FF002054494D4520FF0055C025
:1004000012E02EDE35DEF4E0E2E43CDEC51682F0DA
:1004100011F4D4166AF0F4E0E4E538DE052F005D4F
:10042000502E40DE042F005D502E3CDE1DDE07C046
:10043000D42EC52EF4E0E0E629DE16DE00C0789466
:10044000FFCF2020202047414D454F5645522020C8
:100450002020FF002020202053434F524520FF0042
:1004600020204E455720484953434F5245212020D4
:02047000FF008B
:0400000007C056C01F
:10000E0081C10FE50DBF02E00EBF08E0402E0FEFDD
:10001E00302E04D012D018D061C0FFCF0FEF0ABB24
:10002E0007BBD99808E308BB23D00CE008BB20D04F
:10003E0006E008BB1DD015D008950FEF01BB0AE0F6
:10004E0005BF00EC0BBF08950FEF04BB00E005BB2E
:10005E00089508E008BB0CD008950CE008BB08D04A
:10006E00089501E008BB04D002E008BB01D008955A
:10007E00D89AD898089500E808BBFADF04C000ECBF
:10008E0008BBF6DF00C0C895301421F03196502C15
:10009E0002D0F9CF0895D99A052D08BBE9DFD9987A
:1000AE000895202E0F91022D00E00117B1F101E00D
:0C00BE000117A1F102E0011789F000C059
:00000001FF
