:020000020000FC
:1001260000E005BBB4DFBBDF23D013E0F1E0E4E978
:10013600C0DFF1E0E6EAC1DF0C2D005D502EC9DF1D
:100146000D2D005D502EC5DFA6DF0AD00FEF602E05
:10015600702E9BD09AD0789410E06BCF53C0E3C03A
:1001660073E020E030E040E050E000EFA02E08957C
:10017600D0E0C0E608810F5F29F400E00993088308
:10018600D0E0C0E60991D02E0881C02E0895202027
:1001960050454E43455420444F4E47212020FF00F2
:0C01A600202020484953434F524520FFC1
:10020A0009E0021711F433952FEF239513E00FE558
:10021A000DBF02E00EBF1CD079D03CD02DDF789400
:10022A0000E011E030D0BB2051F400C001E0081713
:10023A0019F0869585BBF6CF01E0B02E00C000E824
:10024A00081719F0880F85BBEDCF00E0B02EEECF6E
:10025A001CDF23DFF3E0E0E52ADF032F005D502EE9
:10026A0036DF022F005D502E32DFF3E0ECE527DFA8
:10027A00F3E0E2E620DF0DDF0FEF602E702E03D0F1
:10028A0002D001D00895862C9A94F1F7972C8A947B
:10029A00D9F70895FADE01DFF3E0E4E708DF032F78
:1002AA00005D502E14DF022F005D502E10DFF3E0A8
:1002BA00EAE705DF052F005D502E09DF042F005DF8
:1002CA00502E05DFF3E0E2E8F6DE072F005D502E40
:1002DA00FEDEF3E0EAE8F3DE062F005D502EF7DEDD
:1002EA00D8DE0895D2DED9DEF3E0E2E9E0DEF3E01B
:1002FA00E4EAE1DE072F005D502EE9DECADE0FEFE9
:10030A00602E702EC0DFBFDFBEDF0895BBDE04E6BD
:10031A00602E0A2D702E63E080E885BB00E0B02EC7
:10032A0008958415ACDE31F0AADE7723E1F17A95DF
:10033A00D9DF6CCF04E1A01A460F0AE0401712F089
:10034A005395401B5DCF202020204C4556454C201C
:10035A00FF0020202020FF0020202020205245419D
:10036A0044593F2020202020FF00204C564C20FFDB
:10037A002053434F524520FF204C49464520FF0059
:10038A002054494D4520FF0020202020594F552058
:10039A004C4F534520202020FF0020202020204CB5
:0803AA0049464520FF0027C071
:1004000013E048DE4FDEF4E0E6E556DEC51682F086
:1004100011F4D4166AF0F4E0E8E652DE052F005D30
:10042000502E5ADE042F005D502E56DE37DE0BC0F4
:10043000D42EC52ED0E0C0E649935883F4E0E4E71B
:100440003FDE2CDE00C00FEF602E702E21DF20DF9C
:10045000789412E0FFCF2020202047414D454F5691
:10046000455220202020FF002020202053434F52BF
:100470004520FF0020204E455720484953434F5206
:0604800045212020FF00D1
:040000000EC070C0FE
:10001C0073C00FE50DBF02E00EBF08E0402E0FEFDE
:10002C00302E05D013D019D01DD077C0FFCF0FEFD5
:10003C000ABB07BBD99808E308BB35D00CE008BB5A
:10004C0032D006E008BB2FD027D008950FEF01BBAC
:10005C000AE005BF00EC0BBF08950FEF04BB00E0F6
:10006C0005BB089500E003BF01E009BF01E008BF34
:10007C000FEF01BF089505E003BF089500E003BF33
:10008C00089500E002BF089508E008BB0CD0089565
:10009C000CE008BB08D0089501E008BB04D002E0D6
:1000AC0008BB01D00895D89AD898089500E808BBE9
:1000BC00FADF04C000EC08BBF6DF00C0C8953014B2
:1000CC0021F03196502C02D0F9CF0895D99A052DF4
:1000DC0008BBE9DFD9980895202E022D00E0011706
:1000EC00D1F101E00117C1F102E00117B1F003E019
:1000FC00011709F4189511C0C1DF662359F061503E
:10010C000DEC08BBD0DF062F005D502EDFDFB3DF18
:06011C007894089508C16B
:00000001FF
