:020000020000FC
:1000C000C3DF10E0F0E0E8EEC9DFF0E0EAEFCADFFE
:1000D000052F005D502ED2DF042F005D502ECEDFA5
:1000E00078949ECF8DC0A8C0202050454E434554E3
:1000F00020444F4E47212020FF0020202048495314
:06010000434F524520FFB1
:1002000012E009E0021711F433952FEF239502D085
:10021000789406CFF2E0E8E321DF032F005D502E53
:100220002DDF022F005D502E29DFF2E0E4E41EDF17
:10023000F2E0EAE417DF0895202020204C455645DF
:100240004C20FF0020202020FF00202020202052D2
:0C025000454144593F2020202020FF00A1
:0400000004C042C036
:1000080017C10FE50DBF02E00EBF08E0402E0FEF4D
:10001800302E03D00ED050C0FFCFD99808E308BBCC
:1000280016D00CE008BB13D006E008BB10D008D0EF
:1000380008950FEF01BB0AE005BF00EC0BBF089560
:1000480001E008BB04D002E008BB01D00895D89AAB
:10005800D898089500E808BBFADF04C000EC08BB94
:10006800F6DF00C0C895301421F03196502C02D02C
:10007800F9CF0895D99A052D08BBE9DFD9980895D5
:10008800202E0F91022D00E0011741F101E0011728
:0A00980031F102E0011781F000C011
:00000001FF
